:020000040800F2
:10000000381E00207D0100088501000887010008D6
:1000100000000000000000000000000000000000E0
:10002000000000000000000000000000B501000812
:1000300000000000000000002D0200083902000846
:100040008F010008000000008F0100088F010008E8
:100050008F0100088F0100088F0100088F01000840
:10006000000000008F010008612000088F010008D7
:100070008F0100088F0100088F01000800000000B8
:100080008F010008E9290008000000008F01000826
:100090008F0100088F0100088F01000885230008E8
:1000A0008F0100088F0100088F0100082D2A000829
:1000B0008F01000800F002F800F030F80CA030C802
:1000C000083824182D18A246671EAB4654465D46D4
:1000D000AC4201D100F022F87E460F3E0FCCB6466E
:1000E0000126334200D0FB1AA246AB4633431847E1
:1000F000B4340000D434000000230024002500267E
:10010000103A01D378C1FBD8520700D330C100D5D3
:100110000B6070471FB51FBD10B510BD00F0F7F99B
:10012000114603B402F079FE03BCFFF7F3FF03F0BE
:10013000B3F800F00BFA03B4FFF7EEFF03BC00F0D6
:1001400011FA000070B505460C46164602E00FCCC9
:100150000FC5103E102EFAD2082E02D303CC03C5D1
:10016000083E042E07D301CC01C5361F03E02178D9
:100170002970641C6D1C761EF9D270BD074880473B
:1001800007480047FEE7FEE7FEE7FEE7FEE7FEE77B
:1001900004480549054A064B70470000F12800084D
:1001A000B500000838170020381E0020381900203C
:1001B00038190020EFF309808169891E0978002928
:1001C00026D101B50FC8B8470CBC03C29E461D4BD3
:1001D00006CB91421BD0002909D0EFF309802038CB
:1001E0008863F0C044464D4656465F46F0C0083B23
:1001F0001A60906B1030F0C8A046A946B246BB46C4
:1002000080F309882038F0C80220C04300477047B7
:1002100010B50D4A1368994206D8890054580FC882
:10022000A047EFF309840FC410BD000001B500F032
:10023000B3FC03BC8E46CAE701B501F02BF803BC42
:100240008E46C4E77415002018350008F8B5042A56
:100250002CD3830712D00B78491C0370401C521E0C
:1002600083070BD00B78491C0370401C521E830778
:1002700004D00B78491C0370401C521E8B079B0F47
:1002800005D0C91ADF002023DE1B08C90AE0FFF7EA
:1002900059FFF8BD1D4608C9FD401C46B4402C431B
:1002A00010C0121F042AF5D2F308C91A521EF0D446
:1002B0000B78491C0370401C521EEAD40B78491C71
:1002C0000370401C012AE4D409780170F8BDD2B251
:1002D00010B513029A1813049A1800F001F810BD13
:1002E00001E004C0091F0429FBD28B0701D502805D
:1002F000801CC90700D00270704700290BD0C307CB
:1003000002D00270401C491E022904D3830702D583
:100310000280801C891EE3E70022EEE70022DFE76F
:10032000002203098B4273D3030A8B4258D3030B79
:100330008B423CD3030C8B4221D312E003460B4388
:100340007FD4002243088B4274D303098B425FD3CE
:10035000030A8B4244D3030B8B4228D3030C8B42FA
:100360000DD3FF22090212BA030C8B4202D31212E0
:10037000090265D0030B8B4219D300E0090AC30BB5
:100380008B4201D3CB03C01A5241830B8B4201D362
:100390008B03C01A5241430B8B4201D34B03C01A4B
:1003A0005241030B8B4201D30B03C01A5241C30AC3
:1003B0008B4201D3CB02C01A5241830A8B4201D334
:1003C0008B02C01A5241430A8B4201D34B02C01A1E
:1003D0005241030A8B4201D30B02C01A5241CDD2C3
:1003E000C3098B4201D3CB01C01A524183098B420E
:1003F00001D38B01C01A524143098B4201D34B01F7
:10040000C01A524103098B4201D30B01C01A524159
:10041000C3088B4201D3CB00C01A524183088B42E0
:1004200001D38B00C01A524143088B4201D34B00C9
:10043000C01A5241411A00D201465241104670473B
:100440005DE0CA0F00D04942031000D34042534040
:1004500000229C4603098B422DD3030A8B4212D300
:10046000FC22890112BA030A8B420CD38901921132
:100470008B4208D3890192118B4204D389013AD06F
:10048000921100E08909C3098B4201D3CB01C01A44
:10049000524183098B4201D38B01C01A5241430957
:1004A0008B4201D34B01C01A524103098B4201D345
:1004B0000B01C01A5241C3088B4201D3CB00C01AB2
:1004C000524183088B4201D38B00C01A5241D9D2CA
:1004D00043088B4201D34B00C01A5241411A00D24B
:1004E0000146634652415B10104601D34042002B47
:1004F00000D54942704763465B1000D3404201B5C6
:100500000020C046C04602BD704770477047754620
:1005100000F024F8AE46050069465346C008C00006
:10052000854618B020B5FFF733FE60BC00274908A8
:10053000B6460026C0C5C0C5C0C5C0C5C0C5C0C57B
:10054000C0C5C0C5403D49008D46704710B5044642
:10055000C046C0462046FFF7EEFD10BD004870477C
:10056000D816002001491820ABBEFEE72600020085
:10057000704770B58C180578401C6B075B0F01D174
:100580000378401C2A1106D10278401C03E006784B
:10059000401C0E70491C5B1EF9D12B0705D40023AB
:1005A000521E0DD40B70491CFAE70378401CCB1A7D
:1005B000921C03E01D780D70491C5B1C521EF9D57E
:1005C000A142D8D3002070BD80B501460520C043AC
:1005D000EFF30582002A06D1EFF31082002A02D140
:1005E000014F084600DF80BDF513000880B50146C5
:1005F0000020EFF30582002A11D1EFF31082002AC8
:100600000DD1074F0846EFF31482920706D4EFF39B
:100610000882203AD208D20082F3098800DF80BD28
:1006200009140008D0B5EFF30582002A03D1EFF3D7
:100630001082002A1BD00322D44300281AD000299C
:1006400018DB0278032A15D1641C4278002A11D0E5
:10065000EFF31082EFF3108372B6C4680C43C460EA
:10066000002A00D162B600F0E7FA2046D0BD024F62
:1006700000DF04462046D0BD81140008F0B581B0EB
:10068000EFF30584002C03D1EFF31084002C32D05B
:100690000324E44300282CD0002930DB002B45D173
:1006A0000378032B44D1631C4578002D41D00223ED
:1006B0001A4226D101252A40EFF310830093EFF36D
:1006C000108672B6C3681E460E40771A7D1BAF4176
:1006D000174016430025002E06D0002F04D1E21C3F
:1006E00051401940C1601D460098002819D162B6DA
:1006F00017E023461DE0104F00DF034619E02346B4
:1007000017E0C368184608400025884200D11D46FE
:1007100001210A40002A00D11D461043002800D1C3
:100720000546631C002D04D02B4602E0234600E062
:100730002346184601B0F0BD9115000880B5002091
:10074000C043EFF3058100290DD1EFF3108100299B
:1007500009D10120EFF31481014202D10348007A4C
:1007600080BD014F00DF80BD8116000858150020B4
:1007700080B50520C043EFF30581002910D1EFF3C8
:10078000108100290CD1074FEFF31482920706D491
:10079000EFF30882203AD208D20082F3098800DF02
:1007A00080BDC0468D16000880B50520C043EFF31C
:1007B0000581002910D1EFF3108100290CD1074FDA
:1007C000EFF31482920706D4EFF30882203AD2089E
:1007D000D20082F3098800DF80BDC04641180008BE
:1007E000F0B581B00C460546EFF30580002803D133
:1007F000EFF31080002829D00320C643002D2AD013
:10080000002B28D1002C26D02878082823D1761C4C
:10081000687800281FD0009228460C3000F03DF97F
:100820000746002F17D06A6A38460C302146FFF77A
:100830000DFD07203870012078700026BE700098EA
:10084000F870BD60384600F0F7F904E0034F284621
:10085000214600DF0646304601B0F0BDD118000841
:1008600080B502460520C043EFF30583002B06D177
:10087000EFF31083002B02D1014F104600DF80BD43
:10088000051A000880B501460520C043EFF3058234
:10089000002A06D1EFF31082002A02D1014F084648
:1008A00000DF80BDA91A000880B501460020EFF3E3
:1008B0000582002A11D1EFF31082002A0DD1074FD3
:1008C0000846EFF31482920706D4EFF30882203A29
:1008D000D208D20082F3098800DF80BD811B0008A6
:1008E00080B501460520C043EFF30582002A06D1FA
:1008F000EFF31082002A02D1014F084600DF80BDCD
:10090000F91B0008F0B583B004466078002847D092
:10091000A768002F44D001943D462320295C686AD3
:10092000AF68022211421BD101263140EFF3108241
:100930000292EFF3108372B6E268134603401C1A6A
:10094000A61BB4410C400B430026002B17D0002CF3
:10095000019C029B15D111468143E160164610E0CF
:1009600001221140E66833460340181A821A90416A
:1009700008400B43002B11D0002805D00EE0019C4D
:10098000029B002B00D162B6002E07D0284600F053
:10099000B3FA00222846314600F028FC002FBBD1D4
:1009A00003B0F0BDF0B582B0002300282BD00029A1
:1009B0002CD0032A17D8009301920F3107229143BC
:1009C00086680246083035462C1A476803233E469F
:1009D0009E43A31B8B4209D22E68002E2846F2D1DB
:1009E000009802B0F0BD184602B0F0BD53685B1825
:1009F0005360019A0A43002F0BD0355031184A60DA
:100A00000160084606E0184602B0F0BD184602B084
:100A1000F0BD4260083002B0F0BDB0B50022002841
:100A200019D0002917D00446083408390023254678
:100A30008D4205D02C680022002C2B46F7D10AE00D
:100A40004A680324A2434468A21A4260002B04D0DF
:100A50000868186001221046B0BD002048600122DD
:100A60001046B0BD10B502460020002A14D007235E
:100A70001A4211D10C461C4018290DD3002C0BD161
:100A80001160102050608818014608399160D943E0
:100A900000234350D360012010BD10B50146002053
:100AA000EFF31082002912D0EFF3108072B60C68B9
:100AB0004B680020A34207D25B1C4B604B69002BA4
:100AC00002D0186848611846002A00D162B610BDED
:100AD00010B502460320C043EFF31083002A15D05F
:100AE000D4688C4212D814698C420FD9EFF3108469
:100AF00072B6401C5468002C05D0601E50605069CE
:100B0000086051610020002B00D162B610BDB0B565
:100B100004460020002C1BD0002919D0002A17D031
:100B2000002B15D000200D4655435D192160271D6F
:100B30002DC763614C1E09D00125691A54431C1945
:100B40009D181D60491C2B46FAD1234618600120D0
:100B5000B0BDF0B581B004460EE0284600F0A4F91F
:100B600007463146324600F041FBEF60F86A6861A3
:100B70002E61FD6201202876002C0BD025466C6981
:100B8000E87808210842F7D000262E76A8680028C9
:100B9000E3D1F1E701B0F0BDF0B581B0254C01E043
:100BA000616F8847EFF310815822EFF3108072B61F
:100BB0005A23E55A0020002D0ED0A65A681EE05296
:100BC0005E22A05A451CAFB20023B74200D02B468C
:100BD0008000256E2858A352002900D162B6002853
:100BE00022D00178491E0629DCD8890001A2895843
:100BF0008F46C046110C0008A50B0008170C000812
:100C0000A50B00081D0C0008230C0008A10B000810
:100C1000616E8847C6E7A16E8847C3E7E16E8847E3
:100C2000C0E7216F8847BDE7002000F0A7F801B0BA
:100C3000F0BDC04658150020F0B581B00146EFF375
:100C4000108258231748C35AEFF3108472B65A25FE
:100C5000465B00249E420ED2741C44535C24055B08
:100C6000AE00076EB9516D1CAFB200269F4200D096
:100C70002E4606530124002A00D162B6002C06D06D
:100C8000417A002908D00121C17201B0F0BD0220D3
:100C900002F050FB01B0F0BD0120000702490860DE
:100CA00001B0F0BD5815002004ED00E001480068D7
:100CB0007047C04610E000E001480721016070471E
:100CC00010E000E080B50948C06809494968FFF7AD
:100CD00027FB401E0749086000204860FF210906E5
:100CE000054A13680B431360C04380BD58150020AC
:100CF0003035000814E000E020ED00E070B51E483B
:100D0000416B002936D0CA69521ECA6132D1CA6805
:100D1000002A07D08B6893608B68002B00D0DA60C4
:100D20000022CA6001224A702023CC560246243297
:100D3000C66A002E09D0054624353246D656A6424C
:100D400008DB9668002E1546F7D100238B60CA6039
:100D5000083203E08A60CD60A9600C321160096935
:100D60000022002905D0CA69002AD0D000224A6199
:100D70000A46426370BDC04658150020F0B581B0E8
:100D80004849CA690123002A00D113460C7AA41EDF
:100D900000273E1B66411E40002831D02024055705
:100DA000012E19D11657B54216DD00970123537055
:100DB0000D462435CF6A002F09D00B4624333D461B
:100DC0002F57B74243DDAF68002F2B46F7D1009B6A
:100DD0009360D56008353EE0012242700A46243215
:100DE000CB6A002B08D024311A461357AB4227DBBD
:100DF0009368002B1146F7D18760C260083223E068
:100E0000C86A0123002800D103461E40012E1CD1D0
:100E1000202415570357AB4217DDC368002B0097FA
:100E200021D086689E608668002E00D0F360C7607F
:100E3000CF6A012353700E462436002F16D11FE0CF
:100E40008260C16088600C32106001B0F0BD9560B6
:100E5000D3609A600C352A6002224270086200F06A
:100E600031F901B0F0BD0123537007460B4624331E
:100E70003E463757AF4208DDB768002F3346F7D1FB
:100E8000009B9360D660083603E09660D3609A605A
:100E90000C36326002224270086200F013F901B091
:100EA000F0BDC0465815002001468868002806D0CD
:100EB00082688A60002A00D0D1600021C16070473A
:100EC000B0B5002917D020228B568468002C08D09A
:100ED0000546204684569C4208DB8468002C054663
:100EE000F7D100228A60C860083003E08860CD60D6
:100EF000A9600C300160B0BDC168002907D08268CC
:100F00008A608268002A00D0D1600021C1607047E9
:100F1000B0B501460A78012A03D1C9680029F9D180
:100F200023E0C268002A07D0836893608368002B9F
:100F300000D0DA600022C2602023C4568D68002DE4
:100F400008D02A46D556A5420ADB9568002D1146E1
:100F5000F7D100E00A4600218160C260083203E058
:100F60008260C16088600C321060B0BDF0B541781D
:100F700033297BD12321435C426A02210B421BD1DE
:100F800001210B40EFF31084EFF3108572B6856AF0
:100F90002F461740BE1A711A8E411E401F43002172
:100FA000002F05D0002E03D12946914381622946A6
:100FB000002C0FD162B60DE001242340816A0D465A
:100FC0001540AA1A141BA2411A401D43002D4DD0F2
:100FD000002A4BD1002949D0826B11624169C36953
:100FE0001A46013211D0224A002902D1546B8442A0
:100FF0001FD10469002C04D0E569EB18E36161613D
:101000004169002912D00C610DE0194A002902D172
:10101000936B83420DD10369002B01D05961416963
:10102000002905D00B610021416102E0546300E01A
:10103000936301214170202283560D4C21462431B7
:10104000E56A002D08D0243429468D569D4208DBE0
:101050008D68002D0C46F7D100228260C1600831F6
:1010600003E08160C460A0600C310860F0BDC04640
:1010700058150020B0B50121417000281AD0202257
:1010800083560D4C21462431E56A002D08D02434C6
:1010900029468D569D4208DB8D68002D0C46F7D100
:1010A00000228260C160083103E08160C460A060FA
:1010B0000C310860B0BDC04658150020806B203050
:1010C0007047000080B50848C16900290AD0086B44
:1010D0008A6B824203D90068044A904202D0012000
:1010E00002F028F980BDC04658150020A52E5AE20E
:1010F00080B50221417002490862FFF7E3FF80BD1D
:101100005815002070B50246374BDC690020002CD2
:1011100069D01D7A022D15D1DD6A002D63D0627071
:10112000084601301AD05E6B0022002E2CD000251C
:101130003046C669B14234D3891B0669002E054684
:10114000F6D122E0E16800294DD0A0688860A0684F
:10115000002800D0C1600020E06070BD1846383023
:1011600000221146026810461030002AF9D10020F2
:10117000C243E26161612061084610301A4638328C
:1011800000291DD110461BE01046E161606122611B
:10119000014610311A463432002800D11146084663
:1011A0000EE0E161656120612A4610321E46343648
:1011B000002D00D132461460C269511AC161143049
:1011C0000460D86A002808D08168D962002902D05A
:1011D0001A462432CA600021C1600221417018629F
:1011E000FFF770FF012070BD5815002070B5836BAC
:1011F00019624169C4692346013311D0244B002987
:1012000002D15D6B85421FD10569002D04D0EE69C6
:101210003419EC6169614169002912D00D610DE05A
:101220001B4B002902D19C6B84420DD10469002C18
:1012300001D061614169002905D00C610021416143
:1012400002E05D6300E09C63012A02D1FFF796FD96
:1012500070BD01214170202283560D4C214624315E
:10126000E56A002D08D0243429468D569D4209DBBD
:101270008D68002D0C46F7D100228260C1600831D4
:10128000086070BD8160C460A0600C31086070BDF2
:1012900058150020B0B5FFF709FD1B4D2869696995
:1012A0000024401C61412861696100F02FF8FFF7BC
:1012B00025FD2046FFF762FDA96C002923D02A6A8C
:1012C000286C904202D02A646964B0BD696C002920
:1012D00002D0491E696416D1297A022913D1EC6A19
:1012E000002C10D02021405C615C81420BD1204653
:1012F000FFF702FE286CFFF7BDFE2046FFF7F8FE61
:101300002C64A86C6864B0BD5815002070B5274ED9
:10131000F46C002C03D02069401E206100D070BD09
:10132000E068002801D0A1688160F064706D2146FA
:10133000183100252A462B46FFF752FA002803D021
:101340000320214601F0F6FFE07801280ED1F36C6E
:101350006069002B0DD0002219460B6998420DD30D
:10136000C01ACB68002B0A46F6D103E0012060705A
:1013700014E02946A160E560206107E0A260E16019
:1013800020610B69181A08618C60114608460C3000
:1013900032464C32002900D110460460F46C002C17
:1013A000BDD020690028BBD0B9E7C0465815002041
:1013B000F0B5014F00DFFEE7C51C0008D0B50346BD
:1013C0000020EFF30584002C11D1EFF31084002CE2
:1013D0000DD1074F1846EFF314839B0706D4EFF3A4
:1013E0000883203BDB08DB0083F3098800DFD0BDE6
:1013F000191E000880B50146002902D01320FFF70E
:1014000081FE002080BD000010B502460024002AA5
:1014100010D090681468002808D0002103231842D7
:1014200027D1D2680021102A23D315E0D0680021EB
:1014300000281ED1942010490858002802D0FFF738
:101440002CFB05E08420085810210122FFF7AAFA9E
:10145000002100280DD001210322027001224270D8
:101460008170002144608160C1600349034A8A663B
:101470000146084610BDC046581500200509000861
:10148000F0B587B005460320C343002D73D0002973
:1014900073DB2878032872D15C1C6878002874D02C
:1014A000EFF31080EFF3108272B6EC680C43EC603F
:1014B000002800D162B6A868002863D00293039583
:1014C000019406462320335C30462330726AB168AB
:1014D0000691022105910B421DD101273B40EFF3FC
:1014E00010810491EFF3108172B6EC682546154027
:1014F000A91ACF1BB94119401D430027002D19D04F
:101500000029039D049B17D10299C91C4A4022401F
:10151000EA60274610E001210B40EF683C4614408A
:10152000A21A511A8A411A401C43002C09D0002AE1
:1015300005D006E0039D049B002B00D162B6002F6E
:1015400003D106980028BCD11BE000780599084219
:101550003C4604D10298C01C746A44403C4030466A
:10156000FFF7CAFC002230463946FFF73FFE0698D7
:101570000028A5D106E01C4607E01C4605E01C46F5
:1015800003E0019C0020FFF7F9FB204607B0F0BD07
:10159000F0B585B00C463949C9690325EE43F51C01
:1015A000002967D000282DD0002C2DDB0578032DD5
:1015B0002CD1771C4578002D2AD002252A4204928E
:1015C000029727D10193012513462B40EFF3108298
:1015D0000392EFF3108772B6C76800972740224640
:1015E0003C1B651BAC411C401F430025002F2BD02A
:1015F000002C134629D1F41C5C40009A1440C460AE
:10160000154622E0354635E0354633E0354631E0D3
:101610003D462FE00127009715463D400195C568DE
:1016200003942F46039A1740039ABA1A009C141B7E
:10163000A2411C46019B1A401F43002F039B049F9D
:101640000BD0002A07D008E01346039A002A049F13
:1016500000D162B6019C002D0CD1002C029D09D056
:101660004B6223228F54FFF72BFC43202146FFF7C8
:1016700049FDB51C284605B0F0BDC04658150020F0
:101680000148007A7047C04658150020F0B583B075
:10169000684F387A0026F543002804D001283046E8
:1016A0000ED103B0F0BD38460830A0210291FEF7FC
:1016B00035FE614C606D482805D2284603B0F0BD68
:1016C000284603B0F0BDE168002900D1AEE0228ACF
:1016D000002A2846E5D0396658203A52A068B864F6
:1016E000E56A216B2846FFF7BDF9002801D0842068
:1016F0003D506569A1692846FFF7B4F9842101913D
:10170000002801D101983D58BD67E569216A284646
:10171000FFF7A8F9002801D101983D58FD67656AD7
:10172000A16A2846FFF79EF9002801D101983D588B
:1017300080203D50656B002D09D0AA68EB682968B0
:101740002846FFF7E4F9002801D088203D50A56B1A
:10175000002D09D0AA68EB6829682846FFF7D7F959
:10176000002801D08C203D50E56B002D09D0AA68DF
:10177000EB6829682846FFF7CAF9002801D09020B5
:101780003D50256C002D09D0AA68EB6829682846D1
:10179000FFF7BDF9002801D094203D50656C002D65
:1017A00009D0AA68EB6829682846FFF7B0F9002835
:1017B00001D098203D50A56C002D09D0AA68EB6897
:1017C00029682846FFF7A3F9002801D09C203D5046
:1017D000E56C002D09D0AA68EB6829682846FFF758
:1017E00096F9002801D002983D50246D002C09D0B4
:1017F000A268E36821682046FFF789F9002801D034
:10180000A4203C50FF2000040C490A6802430A60EF
:1018100008680322D2438B583F24A406400220408C
:10182000184388500120387230463AE7284603B002
:10183000F0BDC046581500203035000820ED00E00E
:1018400070B50025EC431D4E307A012833D1306B42
:10185000002808D11A48826D1A48002100F0DCFAED
:101860003063002827D030462430FFF71DFB0028C6
:1018700021D0FFF73DFC124800780124204203D11B
:10188000032080F3148802E0022080F314880E48BD
:101890000068F060FFF716FAB061002806DB1F2130
:1018A00001408C404011800008494450FFF704FA81
:1018B000022030722C46204670BDC04658150020CC
:1018C00030350008553300085415002000E100E0D1
:1018D000F0B583B00E4604460320C543002C29D042
:1018E000002E29D02078082828D16F1C6078002885
:1018F00000D182E0A06883210028029220D04078A5
:1019000088421DD12046FFF7CFFA05460027012265
:101910003946FFF76BFC2846FFF7D0FB0546626AA5
:10192000A8683146FEF792FCE868002865D0029965
:10193000017062E02F4660E02F465EE02F465CE0DB
:101940000091019320460C30FFF7A7F8002824D01F
:10195000626A05460C303146FEF778FC0720287095
:10196000012068700023AB700298E8702146303186
:10197000EFF31080266B002E2F4624D0FD783246E0
:10198000D678AE4224D25668002E1346F7D10023F3
:101990007B60BA6025462C351FE0019A002A2CD0C6
:1019A0001748C16920461446FFF78AFA009810309C
:1019B000C0B22146FFF7A6FBEFF3098086600299CB
:1019C000C160AF1C19E000227A60BA60E76208E0EB
:1019D0007A60BB60154608351A462F60131D002A31
:1019E00000D10B461F60EFF3108172B6A16A491C4B
:1019F000A1620027002800D162B6384603B0F0BDCE
:101A000058150020F0B581B00D4604462548C6693A
:101A10000221CF43B81C002E2AD0781E002C27D0DC
:101A20002278042A24D16078002823D0227E002A3C
:101A300023D0E0780123184202D0E368B34229D0D2
:101A4000002D24D008420AD02022B156E0688356E7
:101A5000024620328B4202DA1170FFF759FA204613
:101A60003146FFF72DFA53202946FFF74BFB781C30
:101A700001B0F0BD384601B0F0BDE660F06A6061CB
:101A800000202061F4620121217601B0F0BD3846CA
:101A900001B0F0BDFF2A3846EAD0501C2076002065
:101AA00001B0F0BD58150020F0B581B00546032007
:101AB000C643002D30D0287804282FD1741C6878B4
:101AC000002857D000246C70287E002840D0696917
:101AD000E868002901D02A690A6102462C322F6980
:101AE0003B461433002F00D01A461160E9780222D9
:101AF000114227D02121415CC26A00E05269002ACC
:101B00000ED09368002BF9D02027DB574FB2BB4291
:101B100000DC0B461946F1E734462BE0344629E059
:101B20002022835C02462032CFB2BB420AD0117021
:101B3000FFF7EEF906E02846FFF7B6F9711C002220
:101B4000FFF754FBA8680028F5D10020FFF716F92D
:101B5000A878012108420DD098200849085800288B
:101B600003D02946FEF7B4FF04E084200858294634
:101B7000FEF753FF204601B0F0BDC04658150020C7
:101B8000B0B502460024002A254611D015685468D5
:101B90009068002808D000210323184228D1D26879
:101BA00000211C2A24D315E0D068002100281FD171
:101BB000982010490858002802D0FEF76EFF05E073
:101BC000842008581C210122FEF7ECFE0021002889
:101BD0000ED0012104220270012242708170C47073
:101BE00045600021017641610161C160816001466B
:101BF0000846B0BD5815002070B504463048C0698D
:101C00000221CA43951C002857D0551E002C54D0E1
:101C10002378042B51D16378002B05D0E3688342ED
:101C200005D01546284670BD1546284670BD237E52
:101C3000002B154641D05A1E22760025FF231A425A
:101C40003BD16269002A01D02369136103462C331A
:101C5000266935461435002E00D02B461A60E278EE
:101C60000A4213D02121415CC26A00E05269002A75
:101C70000AD09368002BF9D020255B574DB2AB42B8
:101C800000DC0B461946F1E720228154A0680028A9
:101C90000FD02046FFF708F90546002631463246A8
:101CA000FFF7A4FAE560E86A60612661EC62012052
:101CB000207600252846FFF761F8284670BDC0460B
:101CC00058150020F0B581B0524DEC69002C00D1C0
:101CD00096E0E06AFEF73DFFA06900284AD0816BDC
:101CE00000270F624269C6693146013111D0002ACE
:101CF00002D1696B81421ED10369002B04D0D969DE
:101D00008919D9615A614269002A11D0136147616A
:101D100011E0002A02D1A96B81420CD1016900298E
:101D200001D04A614269002A04D01161476102E092
:101D30006B6300E0A9632A463D46012141702023E0
:101D4000C65611462431D26A002A09D0314F2437B1
:101D50001146CA56B24207DB8A68002A0F46F7D1FD
:101D60008560C160083103E08160C760B8600C31F4
:101D70000860284D287A022842D1E86A00283FD01E
:101D8000EFF30980A063E86A002808D08168E9625F
:101D9000002902D02A462432CA600021C1600227ED
:101DA00047702862FFF78EF90020E861E17801268C
:101DB000314202D0A16900291BD06070A07838425E
:101DC0000BD0216B1022104203D1A86FFEF725FE25
:101DD00003E088202858FEF77BFEA07830420FD021
:101DE0008C20285800280DD02146FEF771FE01B046
:101DF000F0BD042060700020E060E86BA060EC6340
:101E000001B0F0BD842028582146FEF706FE01B03F
:101E1000F0BDC04658150020F0B587B006910546C4
:101E20000024002D00D1FBE0182000270121002A0A
:101E3000049116D013695069039091691068059058
:101E400057689668002E1AD028461D4600240323A2
:101E50001E4200D0E4E0D268442A2B46054613D245
:101E6000DEE002903B463C4605978C2077490858B7
:101E70000028039434D01C46FEF70FFE37E0D268EA
:101E80000024002A00D0CBE0002B09D007221A4002
:101E900000240398002800D1C2E0002A00D0BFE04F
:101EA00018200290002905D04A1E0024372A0291EA
:101EB00000D9B5E000210398002808460CD0019114
:101EC0000721039801400024482800D2A8E00029F7
:101ED0000494019900D0A3E0002E04460FD1C4E77A
:101EE00084200858442101221C46FEF75BFD23464E
:101EF00006460024002E00D192E00121039C002B15
:101F00002DD104980128019114D188204F490858F7
:101F10004F4A546D002816D003941021019C214390
:101F20000491FEF7BAFD21460346002B00D0049928
:101F3000039C0FE04548806F00222146FEF732FDEA
:101F40000199034606E0886F00222146FEF72AFD2C
:101F500003460199C9B2002B65D00220014301203C
:101F6000307004907070B170F77005987060002048
:101F7000F061B06170613061F060B0602021029A60
:101F80007254212172542221FD2272542E21705448
:101F90002D2170542C2170542B2170542A217054FF
:101FA00029217054282170542721705426217054FF
:101FB0002521705424217054232170542F217054F2
:101FC000E018403833637463B063F56321481860E8
:101FD0001F4800780421084201D1B46B0DE0A0082D
:101FE0001C1D112809D0870039464439CC222046CF
:101FF0001C46FEF76CF9E419403C34212046FEF7FC
:102000008DF91548049909066063A563E163069894
:1020100020620E48114941663046FEF7AFFE344655
:10202000204607B0F0BD002401200142F8D08C20EA
:1020300006490858002803D03146FEF749FDEFE76E
:10204000842008583146FEF7E8FCE9E758150020DF
:1020500030350008A52E5AE2B11300086D0F0008B4
:1020600010B5102000F02AF8102000F017F80848EA
:10207000007940084000064908710121054800F038
:102080002DF8022104480068FEF7CCFA10BD0000CC
:10209000341500201C000240D4140020012109073F
:1020A0000140002902D00349486001E0024948602C
:1020B00070470000000402400000024001210907AF
:1020C0000140002902D00349486001E0024948600C
:1020D000704700000004024000000240002904D0C4
:1020E000026801231A43026003E00268014B1A40B0
:1020F00002607047FEFF00000168554A1140016010
:102100000021016041608160C1605249884208D16C
:102110005049083949680F2211434E4A083A516024
:1021200094E04C491431884208D14A490839496839
:10213000F0221143474A083A516087E04549283167
:10214000884209D14349083949680F2212021143D4
:10215000404A083A516079E03E493C31884209D111
:102160003C49083949680F2212031143394A083A99
:1021700051606BE037495031884209D135490839FF
:1021800049680F2212041143324A083A51605DE057
:1021900030496431884209D12E49083949680F22F3
:1021A000120511432B4A083A51604FE02949783112
:1021B000884209D12749083949680F22120611437C
:1021C000244A083A516041E02349884208D1224913
:1021D000083949680F2211431F4A083A516035E017
:1021E0001D491431884208D11B4908394968F02239
:1021F0001143194A083A516028E0174928318842AA
:1022000009D11549083949680F2212021143124AAF
:10221000083A51601AE010493C31884209D10E4910
:10222000083949680F22120311430B4A083A5160DA
:102230000CE009495031884208D1074908394968FA
:102240000F2212041143044A083A516070470000FB
:10225000FEFF00000800024008040240002A03D0EC
:1022600003680B43036002E003688B43036070471D
:1022700010B5002202680D4B1A400C6A8B6823438C
:102280000C6923434C6923438C692343CC69234362
:102290004C6A23438C6A23431A430260CB68436031
:1022A0000B6883604B68C36010BD00000F80FFFFA8
:1022B000F0B50A4600210023002400BF3DE00125BF
:1022C0008D402B4615681D402C469C4234D1157913
:1022D000012D02D01579022D16D185684F000326F5
:1022E000BE40B543856055794E00B540866835439C
:1022F0008560858801268E40B543858085889679DE
:102300008E40B6B23543858005684F000326BE4037
:10231000B543056015794E00B54006683543056044
:10232000C5684F000326BE40B543C560D5794E0051
:10233000B540C6683543C560491C1029BFD3F0BD00
:10234000F0B5002300244D07EE0E1546B5402B4690
:10235000CD10AE0005462035AD594E07F70E0F26BD
:10236000BE40B543CE10B60007462037BD51CD1054
:10237000AE003D46AD591D432C46CD10AD003E4646
:102380007451F0BD10B575488069754908600846FC
:10239000006808210840002809D008206F49C8615A
:1023A00070487149086071487149086010BD6C48F7
:1023B00000682021084000280AD020206749C86111
:1023C0006C4800782021884320306A490870EDE786
:1023D0006348006840210840002847D066480078DC
:1023E000002828DD654800785D49086008460068D7
:1023F0000121890208435A4908605A485A4908602D
:102400005E4880780004FF210904084054490968A7
:102410000843534908600846006850494860084628
:102420004068491408434D49486053480078401EAD
:102430005149087019E0494840680121890308435F
:10244000464948604B480078C006C00F002806D1B6
:102450004848007820218843203046490870FF21F1
:10246000013147480068FEF7DDF89FE73C48006807
:102470000221084000280AD03D480068007837490A
:1024800088623B480068401C394908608EE7344840
:102490000078C007C00F00280AD0354800680078CF
:1024A0002E49886232480068401C314908607DE747
:1024B0002B48006804210840002809D02748406ABA
:1024C00029490968087028480068401C26490860A6
:1024D0002348006810210840002809D010201F4917
:1024E000C8612448007810218843103021490870C1
:1024F0001B480068012189020840002809D00846CD
:102500001649C8611B48007804218843001D1949F9
:10251000087013480068012149020840002809D0CA
:1025200008460E49C86113480078082188430830DE
:10253000104908700A480068FF210131084000284E
:1025400009D008460549C8610A4800780221884335
:10255000801C0849087000BF28E7000000540040B4
:10256000EC1400202C160020E01400200A16002095
:10257000DC140020E7140020E8140020E4140020FC
:10258000D414002000218278002A27D0184A03237F
:102590001B02D21803789B109B00D1580278920737
:1025A000D30EFF229A400B46934319464278920776
:1025B000120E03789B07DB0E9A4011430C4A03234B
:1025C0001B02D21803789B109B00D1500278D306CF
:1025D000DB0E01229A40064B1A6007E00278D30610
:1025E000DB0E01229A40024B80331A6070470000D4
:1025F00000E100E0FEB50446002500260020029020
:10260000019000900027864840680C21084005464C
:10261000002D06D0042D07D0082D08D00C2D2CD16C
:1026200028E0804820602BE07E48206028E07C483D
:1026300040680F2189040840064679484068032114
:10264000C90308400290B00C861C0298002803D1F0
:102650007548374647430BE07148C06A0007000FD2
:10266000401C01906F480199FDF75AFE70430746E0
:10267000276005E06D48206002E06A48206000BFE6
:1026800000BF67484068F021084005462D096848AA
:10269000405D009020680099C840606060484068D4
:1026A00007210902084005462D0A6148405D009057
:1026B00061680098C140A1605948006BFF21013159
:1026C0000840884202D05B48E0600DE05448406812
:1026D000012189030840884203D0A0684008E060D7
:1026E00002E0A0688008E0604D48006B402108408F
:1026F000402802D05048206102E00120C003206140
:102700004748006B10210840102802D045486061FE
:1027100001E0206860614248006B8007800F00285C
:1027200002D1A068A06119E03D48006B8007800FCE
:10273000012802D12068A06110E03948006B8007B1
:10274000800F022802D18003A06107E03448006BAB
:102750008007800F032801D13248A0613048006B08
:10276000032109040840002802D1A068E06120E0AC
:102770002B48006B03210904084001210904884209
:1027800002D12068E06114E02548006B03210904B0
:10279000084001214904884202D18010E06108E02C
:1027A0001F48006B032109040840884201D11D48DD
:1027B000E0611B48006B032189040840002802D116
:1027C000A068206220E01648006B032189040840BD
:1027D00001218904884202D12068206214E0104857
:1027E000006B0321890408400121C904884202D1F9
:1027F0000011206208E00A48006B032189040840A8
:10280000884201D1074820620548006B80210840BA
:10281000802802D00548606200E06762FEBD0000CB
:102820000010024000127A0000093D00006CDC023A
:102830003C150020809FD50012800000F8B50025CF
:10284000002400260027254840680C210840054642
:10285000002D04D0042D06D0082D2CD107E02048EF
:10286000204908602BE01E481E49086027E01B48ED
:1028700040680F2189040840044618484068032135
:10288000C90308400646A00C841C1448C06A00070F
:10289000000F471C01200004864207D1394610482A
:1028A000FDF73EFD60430F49086003E00E486043BA
:1028B0000C49086003E00A480A49086000BF00BFED
:1028C00006484068F0210840000908490D5C0548A9
:1028D0000068E84003490860F8BD000000100240AD
:1028E00000127A005415002000093D001C35000834
:1028F000384840683849084036494860084600680A
:1029000036490840334908600846006801218904B7
:10291000884330490860084640683F2109048843DD
:102920002C4948600846C06A00090001C862084690
:10293000006BFF211431884326490863002088601A
:102940000846806901210843224988610846406B96
:10295000400840004863084640687B21C90388431B
:102960001C494860084640681D49084319494860A9
:10297000084640680721090288431649486008460E
:1029800040680521090208431249486000BF00BFA2
:1029900010480068134908430E49086000BF0D48FD
:1029A00000680121490608400028F8D0094840681D
:1029B00080088000074948600846406802210843B3
:1029C0000449486000BF034840680C2108400828BB
:1029D000F9D17047001002400CB8FF08FFFFF6FE67
:1029E00002002800010000010120C0430B490882B9
:1029F0000B4800880B49884204DA09480088401CCB
:102A000007490880084800880649884204DA0648D1
:102A10000088401C044908807047000000100040F6
:102A2000F0140020204E00003A15002010B5244973
:102A3000244800F064F8002806D0234800784008B5
:102A40004000401C204908701D491E4800F044F811
:102A500000211E48FFF742FB1B484078012810D197
:102A60001B481A493039C863002017494870174875
:102A70003038406B4021081AC1B215483C30017112
:102A800010E01348403811493039C86301200E491D
:102A900048700E483038406B4021081AC1B20C48CB
:102AA0003C304171402009493039486301210748D1
:102AB000FFF714FB012107480068FDF7B3FD10BDC7
:102AC0001A010B000038014034150020300002408C
:102AD00094160020D414002010B5002300220B0C03
:102AE00001249C402246026210BD002A03D0836864
:102AF0000B43836002E083688B438360704770B54B
:102B000002460B4600240021002500201E04350E3D
:102B1000D9B201268E403146012D02D116683140CE
:102B200006E0022D02D15668314001E0966831403E
:102B30001C0C0126A6403446D6693440002903D037
:102B4000002C01D0012000E0002070BDF8B5034644
:102B50000024002600960025002018460E04340E9E
:102B6000CEB200960127009EB7403D46022C01D10F
:102B7000001D02E0032C00D10830002A03D00668B3
:102B80002E43066002E00668AE430660F8BD000012
:102B9000F0B58BB004460D46002700200A900026B1
:102BA0002068400840002060666803210903304621
:102BB00088430646A8680643666026682D48064096
:102BC000E968686808432969084306432660A668DF
:102BD0000321090230468843064668690643A66019
:102BE0006846FFF707FD2448844202D106980A9000
:102BF0000DE02248844202D107980A9007E020485D
:102C0000844202D108980A9001E002980A90206854
:102C10000121C903084000280CD029680A9A5000F5
:102C2000FDF77EFB074629680A9A5000FDF778FBFE
:102C30000E4609E029680A98FDF772FB07462968E5
:102C40000A98FDF76DFB0E4628684008B04200D890
:102C50007F1C20680121C9030840002806D03807DE
:102C6000460F38460749084030430746A7810BB056
:102C7000F0BD0000F3E9FFFF0038014000440040D0
:102C800000480040F0FF0000002905D04268012301
:102C9000DB051A43426004E042680123DB059A43E6
:102CA000426070474269120E1206426142690A434D
:102CB0004261704730B47446641E2578641CAB4290
:102CC00004D3635D5B00E31830BC18471D46F8E78A
:102CD00010B5002819DB1A4A03231B02D2188308F7
:102CE0009B00D2588307DC0EFF23A3409A438B0737
:102CF0001B0E8407E40EA3401A43114B0324240245
:102D00001B198408A4001A5118E00E4A03071B0F70
:102D1000083B9B089B00D2588307DC0EFF23A3408F
:102D20009A438B071B0E8407E40EA3401A43054BFE
:102D30000407240F083CA408A4001A5110BD000089
:102D400000E100E01CED00E010B5002819DB1A4A94
:102D500003231B02D21883089B00D2588307DC0E82
:102D6000FF23A3409A438B071B0E8407E40EA34066
:102D70001A43114B032424021B198408A4001A517E
:102D800018E00E4A03071B0F083B9B089B00D25814
:102D90008307DC0EFF23A3409A438B071B0E840797
:102DA000E40EA3401A43054B0407240F083CA40873
:102DB000A4001A5110BD000000E100E01CED00E08D
:102DC00010B5044600F0C8FA002804D00021C94319
:102DD0002068FDF745FD10BD10B504462068FDF7DD
:102DE00051FD10BD10B504460020FDF75DFD2060CB
:102DF0002068002805D12146052000F09BFA00201C
:102E000010BD0120FCE710B5044600F0A5FA00282B
:102E100002D02068FDF764FD10BD10B5FDF7A8FCD9
:102E200010BD000010B504463B4800684008400053
:102E3000394908600220FDF7C7FB374800680121C7
:102E40000843354908600220FDF7BEFB334800788F
:102E5000002803D031480078022801DD002010BD91
:102E600000202F4908702F482F4908602F4800780C
:102E70002F490860012C19D108460068A1020843B7
:102E80002B4908602B482C49086028488078002886
:102E900000D1E4E7254880780004FF2109040840B8
:102EA000234909680843224908600FE01F48407819
:102EB000002800D1D3E71D4840780004FF21090411
:102EC00008401B4909680843194908601848006808
:102ED0001149486000201949088008E00220FDF7E8
:102EE00073FB16480088962801DD0020B7E70A48E2
:102EF00080690121C90308400028EFD106484068D5
:102F0000891008430449486004480078401E03497A
:102F100008700120A3E7000000540040E8140020DE
:102F2000E71400200A160020DC140020E41400201E
:102F3000EC1400202C160020E0140020F0140020D7
:102F40001CB53948406901214904084336494861A4
:102F50000846806A072149040843334988620846C5
:102F6000806A0721490488432F4988620122092188
:102F7000C806FFF7E5F901220A210920C006FFF77C
:102F8000DFF9032040020090022168460171002110
:102F90008171032141710021C17169460920C00678
:102FA000FFF786F9FF2000900021684601718171CA
:102FB0004171C17169460920C006FFF779F91A48C5
:102FC000406901218904084317494861012206210B
:102FD0001648FFF7B5F9012207211448FFF7B0F9A9
:102FE000C0200090022168460171012181710021F9
:102FF00041710121C17169460C48FFF759F90A482E
:1030000040690121C9040843074948610848009004
:10301000012168460171002181714171C1716946C8
:103020000448FFF745F91CBD0010024000040048A9
:10303000FF0300000008004810B51948C0691021BE
:1030400008431749C861084600691021084314491C
:1030500008610846006910218843114908618420ED
:1030600010490880012088810F480E4920310881CD
:1030700027200C49C86208460088012108430949F5
:1030800008801120002805DBC206D20E01219140E4
:10309000064A116000BF00211120FFF755FE10BD48
:1030A0000010024000100040AF04000000E100E00A
:1030B00010B586B004461B48806901218903084386
:1030C000184988610846C0680121890308431549E9
:1030D000C8600846C0680121890388431149C86057
:1030E0000094002001900290039005900C20049021
:1030F00069460D48FFF74CFD23210B48FFF7D2FD31
:1031000001210948FFF7C0FD012208490648FFF7E1
:103110001DFD05480068012108430349086006B009
:1031200010BD000000100240003801401A010B00E1
:1031300000B58BB02E48FEF7DFFF2E4800902E48DA
:1031400001900020029040200390002004908020F5
:1031500005900020069007900890012040030990F8
:1031600000200A9069462248FFF782F80121204892
:10317000FEF7B4FF01202149487008460079400855
:103180004000401C08711A481438FEF7B5FF194872
:10319000001D00901A4801901020029018484030FD
:1031A0004078039000200490802005900020069035
:1031B0000790089001200003099000200A906946BA
:1031C0000B481438FFF754F801220221084814383C
:1031D000FFF744F8012106481438FEF77FFF01226B
:1031E000C02104482438FFF780FC0BB000BD00006C
:1031F00030000240243801405416002034150020CD
:10320000F214002010B51F48C06901214905084388
:103210001C49C8610846006901214905084319494C
:10322000086108460069012149058843154908617C
:1032300015480068400840001349086013480861B9
:103240001348086000208860142088600846806861
:10325000C91308430C4988600846006801210843E7
:10326000094908601720002805DBC206D20E01219B
:103270009140084A116000BF00211720FFF728FD88
:1032800010BD00000010024000540040100A102041
:10329000FE0F080000E100E0FFF7D0FAFFF750FE54
:1032A00000F06EF81C494888FFF702FF1B48406990
:1032B0000121084319494861FFF73AFF00F0C0F8BF
:1032C000FFF7BAFEFFF79EFFFDF738FA002801D19D
:1032D000FDF74EFA0020FDF7E7FA114908600020DB
:1032E000FDF784F90F490860002211460E48FEF7E9
:1032F00065F8002211460D48FEF760F800221146DD
:103300000B48FEF75BF8FDF719FA012801D1FDF72C
:103310004BFA00BFFEE7000000160020001002403C
:10332000D0140020D4140020A5330008CD330008A9
:10333000ED3300080300FFF7BDFC0609040506078E
:10334000080904E003E002E001E000E000BF00BF84
:1033500000BFFEE700BFFEE710B508480078002870
:1033600009D1FDF7EBF9012803DD012003490870BD
:1033700010BD0020FCE70120FAE7000050150020F6
:10338000022007490870012008714B20C0014880C5
:1033900002204871012008724B20C001C88070478C
:1033A000001600200FE00320000207498861642016
:1033B000FDF70AF903200002034920310881FF20AC
:1033C0009130FDF701F9EEE7000800480BE000231B
:1033D000DB430022012104480068FDF74FF97D20FE
:1033E000C000FDF7F1F8F2E7D414002023E07D20BF
:1033F000C000FDF7E9F810480078202802DA7F20A5
:103400000D4908700C4800787F2802DD20200A4909
:1034100008700948007800F027F80748007820284D
:1034200002D10648FDF7D0F8034800787F2802D182
:103430000248FDF7C9F8DAE7D81400208813000025
:1034400008B50A2168460170002141700121817090
:10345000FFF798F81B2168460170012141708170C7
:10346000FFF790F808BD000070B504467D21C90043
:103470000D480068FDF7F4F90546002D0ED10B4903
:103480000870084644700120094908700220094963
:1034900048705C2008700020FFF7C4FC02480068F8
:1034A000FDF71EFA70BD0000D01400200A1600209F
:1034B000E8140020E41400200000000000000000D8
:1034C000B41200204400000040130020C800000097
:1034D00001000000000000000000000000000000EB
:1034E00000000000F8120020440000000814002032
:1034F000C8000000280000000000000000000000DC
:103500000000000000000000301200203400000025
:1035100064120020500000000000000000000000C5
:103520000000000001020304060708090000000073
:1035300003000000E8030000050000000010002068
:10354000100000000000000000000000000000006B
:10355000000000000000000000000000000000204B
:10356000001000000000000000000000000000004B
:10357000000000000000000000000000000000004B
:103580000000000058020000B8340008DC340008D5
:1035900000350008040000005254582056352E31E2
:1035A0002E300000C4350008000000200016000086
:1035B00072050008243600080016002038080000B4
:1035C000F800000801FF01FF01FF01FF01FF01FFFB
:1035D00001FF01FF01FF01FF01FF01FF01FF01FFEB
:1035E00001FF01FF01FF01FF01FF01FF01EC0219D3
:1035F000200016397561727431207472616E736DBA
:10360000697420646174610D0A2D010203040417BA
:10361000060708092C35520813127A1A980C05A0CF
:043620009017FB0202
:04000005080000B53A
:00000001FF
